:020000040800F2
:1000000000000220211F0008491E00084B1E0008A6
:100010004D1E00084F1E0008511E00080000000081
:10002000000000000000000000000000531E000857
:10003000551E000800000000571E0008591E000849
:10004000711F0008711F0008711F0008711F000850
:10005000711F0008711F0008711F0008711F000840
:10006000711F0008711F0008711F0008711F000830
:10007000711F0008711F0008711F0008711F000820
:10008000711F0008711F0008711F0008711F000810
:10009000711F0008711F0008711F0008711F000800
:1000A000711F0008711F0008711F0008711F0008F0
:1000B000711F0008711F0008711F0008711F0008E0
:1000C000711F0008711F0008711F0008711F0008D0
:1000D000711F0008711F0008711F0008711F0008C0
:1000E000711F0008711F0008711F0008711F0008B0
:1000F000711F0008711F0008711F0008711F0008A0
:10010000711F0008711F0008711F0008711F00088F
:10011000711F0008711F0008711F0008711F00087F
:10012000711F0008711F0008711F0008711F00086F
:10013000711F0008711F0008711F0008711F00085F
:10014000711F0008711F0008711F0008711F00084F
:10015000711F0008711F0008711F0008711F00083F
:10016000711F0008711F0008711F0008711F00082F
:10017000711F0008711F0008711F000800000000B7
:08018000711F0008711F000847
:1001C00010B5054C237833B9044B13B10448AFF391
:1001D00000800123237010BDC8090020000000002A
:1001E000249C000808B5034B1BB103490348AFF337
:1001F000008008BD00000000CC090020249C0008FD
:1002000081F0004102E000BF83F0004330B54FEAC7
:1002100041044FEA430594EA050F08BF90EA020F34
:100220001FBF54EA000C55EA020C7FEA645C7FEAC7
:10023000655C00F0E2804FEA5454D4EB5555B8BFEA
:100240006D420CDD2C4480EA020281EA030382EA5B
:10025000000083EA010180EA020281EA0303362DED
:1002600088BF30BD11F0004F4FEA01314FF4801CC0
:100270004CEA113102D0404261EB410113F0004FD2
:100280004FEA03334CEA133302D0524263EB430389
:1002900094EA050F00F0A780A4F10104D5F1200E27
:1002A0000DDB02FA0EFC22FA05F2801841F1000182
:1002B00003FA0EF2801843FA05F359410EE0A5F156
:1002C00020050EF1200E012A03FA0EFC28BF4CF087
:1002D000020C43FA05F3C01851EBE37101F000453D
:1002E00007D54FF0000EDCF1000C7EEB00006EEB4A
:1002F0000101B1F5801F1BD3B1F5001F0CD34908D4
:100300005FEA30004FEA3C0C04F101044FEA44522A
:1003100012F5800F80F09A80BCF1004F08BF5FEAB1
:10032000500C50F1000041EB045141EA050130BD91
:100330005FEA4C0C404141EB0101013C28BFB1F5A3
:10034000801FE9D291F0000F04BF01460020B1FAEE
:1003500081F308BF2033A3F10B03B3F120020CDAC1
:100360000C3208DD02F1140CC2F10C0201FA0CF09F
:1003700021FA02F10CE002F11402D8BFC2F1200C04
:1003800001FA02F120FA0CFCDCBF41EA0C019040BA
:10039000E41AA2BF01EB0451294330BD6FEA040403
:1003A0001F3C1CDA0C340EDC04F11404C4F12002EE
:1003B00020FA04F001FA02F340EA030021FA04F300
:1003C00045EA030130BDC4F10C04C4F1200220FA57
:1003D00002F001FA04F340EA0300294630BD21FA95
:1003E00004F0294630BD94F0000F83F4801306BF5B
:1003F00081F480110134013D4EE77FEA645C18BF4F
:100400007FEA655C29D094EA050F08BF90EA020FE5
:1004100005D054EA000C04BF1946104630BD91EADD
:10042000030F1EBF0021002030BD5FEA545C05D1E0
:100430004000494128BF41F0004130BD14F580041F
:100440003CBF01F5801130BD01F0004545F0FE4193
:1004500041F470014FF0000030BD7FEA645C1ABFC8
:10046000194610467FEA655C1CBF0B46024650EAFF
:10047000013406BF52EA033591EA030F41F400212B
:1004800030BD00BF90F0000F04BF0021704730B5B1
:100490004FF4806404F132044FF000054FF0000186
:1004A00050E700BF90F0000F04BF0021704730B547
:1004B0004FF4806404F1320410F0004548BF40421C
:1004C0004FF000013EE700BF42004FEAE2014FEA71
:1004D00031014FEA02701FBF12F07F4393F07F4F4C
:1004E00081F06051704732F07F4208BF704793F04F
:1004F0007F4F04BF41F40021704730B54FF4607462
:1005000001F0004521F000411CE700BF50EA010264
:1005100008BF704730B54FF000050AE050EA01020D
:1005200008BF704730B511F0004502D5404261EB7D
:1005300041014FF4806404F132045FEA915C3FF4BE
:10054000D8AE4FF003025FEADC0C18BF03325FEA5B
:10055000DC0C18BF033202EBDC02C2F1200300FA0C
:1005600003FC20FA02F001FA03FE40EA0E0021FA31
:1005700002F11444BDE600BF70B54FF0FF0C4CF41F
:10058000E06C1CEA11541DBF1CEA135594EA0C0FD1
:1005900095EA0C0F00F0DEF82C4481EA030621EA0C
:1005A0004C5123EA4C5350EA013518BF52EA033547
:1005B00041F4801143F4801338D0A0FB02CE4FF0F9
:1005C0000005E1FB02E506F00042E0FB03E54FF029
:1005D0000006E1FB03569CF0000F18BF4EF0010E21
:1005E000A4F1FF04B6F5007F64F5407404D25FEA1D
:1005F0004E0E6D4146EB060642EAC62141EA5551D0
:100600004FEAC52040EA5E504FEACE2EB4F1FD0C11
:1006100088BFBCF5E06F1ED8BEF1004F08BF5FEA8F
:10062000500E50F1000041EB045170BD06F0004641
:1006300046EA010140EA020081EA0301B4EB5C04EE
:10064000C2BFD4EB0C0541EA045170BD41F48011E6
:100650004FF0000E013C00F3AB8014F1360FDEBF0B
:10066000002001F0004170BDC4F10004203C35DAE7
:100670000C341BDC04F11404C4F1200500FA05F36A
:1006800020FA04F001FA05F240EA020001F000420B
:1006900021F0004110EBD37021FA04F642EB060181
:1006A0005EEA430E08BF20EAD37070BDC4F10C04AB
:1006B000C4F1200500FA04F320FA05F001FA04F26F
:1006C00040EA020001F0004110EBD37041F100015B
:1006D0005EEA430E08BF20EAD37070BDC4F1200566
:1006E00000FA05F24EEA020E20FA04F301FA05F2CE
:1006F00043EA020321FA04F001F0004121FA04F276
:1007000020EA020000EBD3705EEA430E08BF20EA45
:10071000D37070BD94F0000F0FD101F0004640007F
:1007200041EB010111F4801F08BF013CF7D041EA01
:10073000060195F0000F18BF704703F00046520005
:1007400043EB030313F4801F08BF013DF7D043EAD6
:100750000603704794EA0C0F0CEA135518BF95EA8C
:100760000C0F0CD050EA410618BF52EA4306D1D113
:1007700081EA030101F000414FF0000070BD50EA32
:10078000410606BF1046194652EA430619D094EABC
:100790000C0F02D150EA013613D195EA0C0F05D1A6
:1007A00052EA03361CBF104619460AD181EA0301FA
:1007B00001F0004141F0FE4141F470014FF00000B2
:1007C00070BD41F0FE4141F4780170BD70B54FF04D
:1007D000FF0C4CF4E06C1CEA11541DBF1CEA1355CD
:1007E00094EA0C0F95EA0C0F00F0A7F8A4EB0504AF
:1007F00081EA030E52EA03354FEA013100F08880A6
:100800004FEA03334FF0805545EA131343EA12636E
:100810004FEA022245EA111545EA10654FEA002623
:100820000EF000419D4208BF964244F1FD0404F5DC
:10083000407402D25B084FEA3202B61A65EB030538
:100840005B084FEA32024FF480104FF4002CB6EBF5
:10085000020E75EB030E22BFB61A754640EA0C0075
:100860005B084FEA3202B6EB020E75EB030E22BFB5
:10087000B61A754640EA5C005B084FEA3202B6EBF6
:10088000020E75EB030E22BFB61A754640EA9C00B5
:100890005B084FEA3202B6EB020E75EB030E22BF85
:1008A000B61A754640EADC0055EA060E18D04FEA43
:1008B000051545EA16754FEA06164FEAC30343EAE3
:1008C00052734FEAC2025FEA1C1CC0D111F4801FB0
:1008D0000BD141EA00014FF000004FF0004CB6E7A9
:1008E00011F4801F04BF01430020B4F1FD0C88BF48
:1008F000BCF5E06F3FF6AFAEB5EB030C04BFB6EB53
:10090000020C5FEA500C50F1000041EB045170BD45
:100910000EF0004E4EEA113114EB5C04C2BFD4EB72
:100920000C0541EA045170BD41F480114FF0000EF6
:10093000013C90E645EA060E8DE60CEA135594EA72
:100940000C0F08BF95EA0C0F3FF43BAF94EA0C0F75
:100950000AD150EA01347FF434AF95EA0C0F7FF4EA
:1009600025AF104619462CE795EA0C0F06D152EA3E
:1009700003353FF4FDAE1046194622E750EA410622
:1009800018BF52EA43067FF4C5AE50EA41047FF433
:100990000DAF52EA43057FF4EBAE12E74FEA410296
:1009A00012F5001215D211D56FF47873B3EB6252C1
:1009B00012D94FEAC12343F0004343EA505311F0E8
:1009C000004F23FA02F018BF404270474FF000007A
:1009D000704750EA013005D111F0004008BF6FF0B8
:1009E000004070474FF00000704700BF53B94AB94C
:1009F000002908BF00281CBF4FF0FF314FF0FF3027
:100A000000F074B9ADF1080C6DE904CE00F006F801
:100A1000DDF804E0DDE9022304B070472DE9F0477A
:100A2000089E0D4604468846002B4DD18A429446C6
:100A300068D9B2FA82F252B101FA02F3C2F120018E
:100A400020FA01F10CFA02FC41EA030894404FEA53
:100A50001C45210CB8FBF5FE1FFA8CF705FB1E8325
:100A600041EA03430EFB07F199420BD91CEB030348
:100A70000EF1FF3080F01E81994240F21B81AEF1F1
:100A8000020E63445B1AA4B2B3FBF5F005FB10330E
:100A900044EA034400FB07F7A7420AD91CEB04040D
:100AA00000F1FF3380F00881A74240F205816444E1
:100AB0000238E41B40EA0E4000211EB1D44000235E
:100AC000C6E90043BDE8F0878B4208D9002E00F04C
:100AD000EE800021C6E900050846BDE8F087B3FABC
:100AE00083F100294AD1AB4202D3824200F2F9805D
:100AF000841A65EB030301209846002EE2D0C6E974
:100B00000048DFE702B9FFDEB2FA82F2002A40F0C5
:100B10009180A1EB0C054FEA1C471FFA8CFE0121C6
:100B2000B5FBF7F307FB1350250C45EA00450EFB18
:100B300003F0A84208D91CEB050503F1FF3802D2E7
:100B4000A84200F2CB8043462D1AA4B2B5FBF7F0C1
:100B500007FB105544EA05440EFB00FEA64508D9E4
:100B60001CEB040400F1FF3502D2A64500F2BB8065
:100B70002846A4EB0E0440EA03409EE7C1F120079B
:100B80008B4022FA07FC4CEA030C20FA07F405FA22
:100B900001F31C43FD404FEA1C4900FA01F3B5FB89
:100BA000F9F8200C1FFA8CFE09FB185540EA0545A0
:100BB00008FB0EF0A84202FA01F20BD91CEB050566
:100BC00008F1FF3A80F08880A84240F28580A8F1C1
:100BD000020865442D1AA4B2B5FBF9F009FB1055C3
:100BE00044EA054500FB0EFEAE4508D91CEB0505A1
:100BF00000F1FF346CD2AE456AD90238654440EA50
:100C00000840A0FB0294A5EB0E05A542C846A646E7
:100C100056D353D05EB1B3EB080265EB0E0505FA6F
:100C200007F722FA01F3CD401F43C6E90075002102
:100C3000BDE8F087C2F1200320FA03F10CFA02FCB0
:100C400025FA03F395400D434FEA1C471FFA8CFE2B
:100C5000B3FBF7F107FB11302B0C43EA004301FB18
:100C60000EF0984204FA02F408D91CEB030301F1D8
:100C7000FF382FD298422DD9023963441B1AADB2E6
:100C8000B3FBF7F007FB103345EA034500FB0EF317
:100C9000AB4208D91CEB050500F1FF3816D2AB4278
:100CA00014D902386544ED1A40EA014138E731466B
:100CB000304607E78646E5E61846FAE64B45A9D2F0
:100CC000B9EB020864EB0C0E0138A3E74046EAE7F3
:100CD000204694E74146D1E7D0467BE7023B654496
:100CE00032E7084609E76444023842E7704700BF2C
:100CF000844641EA000313F003036DD1403A41D327
:100D000051F8043B40F8043B51F8043B40F8043BE5
:100D100051F8043B40F8043B51F8043B40F8043BD5
:100D200051F8043B40F8043B51F8043B40F8043BC5
:100D300051F8043B40F8043B51F8043B40F8043BB5
:100D400051F8043B40F8043B51F8043B40F8043BA5
:100D500051F8043B40F8043B51F8043B40F8043B95
:100D600051F8043B40F8043B51F8043B40F8043B85
:100D700051F8043B40F8043B51F8043B40F8043B75
:100D8000403ABDD2303211D351F8043B40F8043B15
:100D900051F8043B40F8043B51F8043B40F8043B55
:100DA00051F8043B40F8043B103AEDD20C3205D325
:100DB00051F8043B40F8043B043AF9D2043208D01D
:100DC000D2071CBF11F8013B00F8013B01D30B888F
:100DD00003806046704700BF082A13D38B078DD06D
:100DE00010F003038AD0C3F10403D21ADB071CBF3F
:100DF00011F8013B00F8013B80D331F8023B20F8A9
:100E0000023B7BE7043AD9D3013A11F8013B00F8E1
:100E1000013BF9D20B7803704B7843708B78837069
:100E20006046704700000000000000000000000065
:100E300001F0FF01102A2BDB10F0070F08D010F88B
:100E4000013B013A8B422DD010F0070F42B3F6D18F
:100E5000F0B441EA012141EA014122F007047FF0A8
:100E600000070023F0E80256083C85EA010586EAFF
:100E7000010685FA47F5A3FA87F586FA47F6A5FA3B
:100E800087F68EB9EED1F0BC01F0FF0102F0070247
:100E900032B110F8013B013A83EA010313B1F8D1F2
:100EA0000020704701387047002D06BF35460338D3
:100EB000073815F0010F07D1013015F4807F02BF0C
:100EC000013015F4C03F0130F0BC0138704700BF5D
:100ED0000000000000000000000000000000000012
:100EE0000000000000000000000000000000000002
:100EF00000000000000000000000000000000000F2
:100F000090F800F06DE9024520F007016FF0000C49
:100F100010F0070491F820F040F049804FF00004F1
:100F20006FF00700D1E9002391F840F000F10800CC
:100F300082FA4CF2A4FA8CF283FA4CF3A2FA8CF304
:100F40004BBBD1E9022382FA4CF200F10800A4FA6B
:100F50008CF283FA4CF3A2FA8CF3E3B9D1E90423BF
:100F600082FA4CF200F10800A4FA8CF283FA4CF3F6
:100F7000A2FA8CF37BB9D1E9062301F1200182FAB0
:100F80004CF200F10800A4FA8CF283FA4CF3A2FAB6
:100F90008CF3002BC6D0002A04BF04301A4612BAC4
:100FA000B2FA82F2FDE8024500EBD2007047D1E9C7
:100FB000002304F00305C4F100004FEAC50514F056
:100FC000040F91F840F00CFA05F562EA05021CBF27
:100FD00063EA050362464FF00004A9E74FF0FF3CC7
:100FE00006E000BF4FF0010C02E000BF4FF0010C23
:100FF0004DF804CD4FEA410C7FEA6C5C4FEA430C9C
:1010000018BF7FEA6C5C1BD001B050EA410C0CBFEA
:1010100052EA430C91EA030F02BF90EA020F00204C
:10102000704710F1000F91EA030F58BF994208BFB3
:1010300090422CBFD8176FEAE37040F00100704770
:101040004FEA410C7FEA6C5C02D150EA013C07D1C7
:101050004FEA430C7FEA6C5CD6D152EA033CD3D012
:101060005DF8040B704700BF8446104662468C460C
:101070001946634600E000BF01B5FFF7B7FF00283F
:1010800048BF10F1000F01BD4DF808EDFFF7F4FF68
:101090000CBF012000205DF808FB00BF4DF808EDF3
:1010A000FFF7EAFF34BF012000205DF808FB00BF16
:1010B0004DF808EDFFF7E0FF94BF012000205DF838
:1010C00008FB00BF4DF808EDFFF7CEFF94BF0120ED
:1010D00000205DF808FB00BF4DF808EDFFF7C4FFE6
:1010E00034BF012000205DF808FB00BF4FEA410C2F
:1010F0007FEA6C5C02D150EA013C0AD14FEA430C12
:101100007FEA6C5C02D152EA033C02D14FF000004E
:1011100070474FF00100704770B505460E46002439
:1011200000E00134A64212DD214628192A5D084B51
:10113000D35C13F0080FF4D04278054BD35C13F066
:10114000080FEED00231294402F0EAFEE9E770BD53
:1011500079A300082DE9F84307460E461446984641
:101160009DF82050DDF824902A460021204602F008
:1011700047FE4B4642463146384602F004FA0646E0
:101180004B462A462146384602F069FA07460023B4
:1011900000E001339D4208DDE15C0F4A8A5C12F0F9
:1011A000970FF6D12022E254F3E729462046FFF7B5
:1011B000B3FF022E06D0022F07D0012E07D0012F39
:1011C00007D000263046BDE8F8833E46FAE7012600
:1011D000F8E70126F6E700BF79A3000830B589B02B
:1011E0000024039404940594069407940194134BEB
:1011F0001A6B42F001021A631A6B02F001020192AB
:10120000019A02941A6B42F002021A631B6B03F0FC
:1012100002030293029B0A4D22460821284601F050
:101220005FF808230393012304930594069403A90C
:10123000284600F063FF09B030BD00BF003802400F
:101240000000024000B587B08DF80F004FF0FF336B
:10125000009301230DF117020DF10F01034801F076
:101260007AFF9DF8170007B05DF804FB380A0020EC
:1012700038B50D46084C636923F0080363614000EC
:1012800000F07E00FFF7DEFF2846FFF7DBFF636913
:1012900043F00803636138BD0000024010B50A4CFA
:1012A000636923F008036361400000F07E0040F0B2
:1012B0008000FFF7C7FF0020FFF7C4FF636943F01A
:1012C0000803636110BD00BF0000024008B50F2194
:1012D0000120FFF7CDFF08BD38B504460D46FFF7E6
:1012E000DDFF40EA0501C9B22046FFF7C1FF38BD66
:1012F00008B503211420FFF7EFFF08BD08B5FFF77D
:10130000E5FF8D212A20FFF7B3FF3E212B20FFF7B9
:10131000AFFF1E212D20FFF7ABFF00212C20FFF790
:10132000A7FF40211520FFF7A3FF3D211120FFF764
:101330009FFFFFF7DDFF08BD38B504460D46FFF7F8
:10134000ADFF20EA0501C9B22046FFF791FF38BD85
:101350002DE9F04707468A46154699460C2817D0CE
:101360000E2819D110264FF0120848F080010220F3
:10137000FFF77EFF80210420FFF7DEFF80210A2097
:10138000FFF7AAFF00210120FFF772FF00240CE005
:1013900030264FF07708E8E70026B046E5E71AF870
:1013A00004100920FFF764FF0134A542F7D839463D
:1013B0000120FFF75DFF0C2F15D04FF4FA650420D4
:1013C000FFF76CFF0446013D04D010F0010F01D17E
:1013D0000642F4D080210D20FFF7AEFF45B902246C
:1013E0002046BDE8F08780210D20FFF775FFE4E778
:1013F0000620FFF753FF10F01B0F2AD108EA040460
:1014000014F0010400D001240C2FE9D10A20FFF7C9
:1014100045FF06460C20FFF741FF10F0070009D0FA
:10142000731E00EBC300089B18603EB1102E06D956
:10143000102604E0F300089A1360F6E70126002561
:10144000AE42CDD90920FFF729FF09F80500013583
:10145000F6E70224C4E730B585B005460C460721FF
:101460000D20FFF705FF257003AB009323460122F3
:1014700021460C20FFF76CFF20B9039B102B02D0F4
:10148000022000E0022005B030BD10B584B0044653
:1014900000210D20FFF7ECFE9323237020236370BF
:1014A00003AB00932346022221460C20FFF750FF96
:1014B00068B104B010BDA15C4B40DBB20132D2B2C6
:1014C000032AF8D9A25C9A42F3D00220F1E703463E
:1014D0000246F5E72DE9F0418046002000F0ACFA25
:1014E00000F0BAFA142002F057F958B30746012465
:1014F00000251CE0132208EB0501384602F06EFDC2
:101500000023FB74104E3178104B187800F052FB1A
:101510000F4A012306CA384600F034FB00F09CFA5B
:1015200033680A3333601335EDB20134E4B2062C6C
:10153000E0D94FF4967000F06FFD0123034A136069
:10154000014A1360BDE8F081040000200000002083
:101550000800002072B6FEE708B50D480D4B036089
:101560004FF48273436000238360C360036143616F
:101570004FF400728261C3610362436283620A2393
:10158000C36201F089FD00B908BDFFF7E3FF00BFAA
:10159000380A00200030014008B50A480A4B0360B1
:1015A0000A4B436000238360C3604FF480420261B2
:1015B00043618361C361036201F004F800B908BDAF
:1015C000FFF7C8FFE409002000540040A086010096
:1015D00008B50A480A4B03604FF4E1334360002327
:1015E0008360C36003610C2242618361C36101F0C7
:1015F0009BFF00B908BDFFF7ADFF00BF900A0020B8
:10160000004C004000B595B03022002108A802F03F
:10161000F7FB002303930493059306930793019329
:101620001F4A116C41F080511164126C02F080521B
:101630000192019A02931B4A116841F480411160A2
:10164000126802F480420292029A02220892012158
:101650000B9110210C910E920F93082310933223BB
:101660001193042312930723139308A801F03AF966
:1016700090B90F23039302230493002105914FF4A3
:10168000A05306934FF48053079303A801F090FBF7
:1016900020B915B05DF804FBFFF75CFFFFF75AFFB8
:1016A0000038024000700040F0B5ADF6640D00F067
:1016B00087FCFFF7A7FFFFF791FDFFF74DFFFFF74F
:1016C0006BFFFFF785FF00F095FAFFF717FEB64AAC
:1016D000536943F010035361B44B93E80300CDF812
:1016E000DC078DF8E0175F2200210DF2E17002F0B7
:1016F00087FBAF4C4FF4FA660196D0250095642322
:1017000003AA0DF2DC712046FFF724FD03A8FFF7C2
:10171000E1FEA84A0DF2DC7307CA03C31A700196F2
:101720000095642303AA0DF2DC712046FFF712FD39
:1017300003A8FFF7CFFE0DF2DC77DFF87CC2BCE830
:101740000F000FC7DCF800303B7001960095642352
:1017500003AA0DF2DC712046FFF7FCFC03A8FFF79B
:10176000B9FE964A0DF2DC7307CA03C31A700196DC
:101770000095642303AA0DF2DC712046FFF7EAFC12
:1017800003A8FFF7A7FE8E4B0DF2DC770FCB07C740
:101790003B7001960095642303AA0DF2DC7120468C
:1017A000FFF7D8FC03A8FFF795FE864F0DF2DC7C0F
:1017B00097E80F00ACE807008CF800300196009520
:1017C000642303AA0DF2DC712046FFF7C3FC03A8D3
:1017D000FFF780FE7C4B0DF2DC7C0FCBACE8070002
:1017E000ACF8003001960095642303AA0DF2DC7179
:1017F0002046FFF7AFFC03A8FFF76CFE0DF2DC7C80
:1018000097E80F00ACE807008CF8003001960095CF
:10181000642303AA0DF2DC712046FFF79BFC03A8AA
:10182000FFF758FE0DF2DC77DFF8A0C1BCE80F002F
:101830000FC79CE8070087E8070041F2883301934F
:101840000095642303AA0DF2DC712046FFF782FCA9
:1018500003A8FFF73FFE5E4F0DF2DC7397E8070029
:1018600003C323F8022B120C1A700196009564230F
:1018700003AA0DF2DC712046FFF76CFC03A8FFF70A
:1018800029FE0DF2DC7397E8070003C323F8022B4F
:10189000120C1A7001960095642303AA0DF2DC71F4
:1018A0002046FFF757FC03A8FFF714FE0DF2DC7388
:1018B00097E8070003C323F8022B120C1A70019655
:1018C0000095642303AA0DF2DC712046FFF742FC69
:1018D00003A8FFF7FFFD0DF2DC7397E8070003C3D1
:1018E00023F8022B120C1A7001960095642303AAA8
:1018F0000DF2DC712046FFF72DFC03A8FFF7EAFD8F
:101900000DF2DC7C334E0FCEACE80F000FCEACE80E
:101910000F0096E80700ACE80300ACF8002042F2A4
:10192000107301930095642303AA0DF2DC71204625
:10193000FFF710FC03A8FFF7CDFD0DF5056126208C
:10194000FFF789FD0DF50560FFF79FFD0028F4D135
:101950009DF852389DF85328019200939DF8513814
:101960009DF850281C490DF5046002F0B9FA0A21CF
:10197000032000F01FF9194A012306CA0DF504607F
:1019800000F000F900F068F80DF5046103A802F01A
:10199000B1FC0028D1D0114A012306CA104800F03A
:1019A000F1F800F059F8C8E700000240409C000838
:1019B000900A0020A49C0008B09C0008C49C000869
:1019C000D09C0008E09C0008F09C0008009D0008E6
:1019D0001C9D0008289D0008549D00080800002058
:1019E000609D000800B587B08DF817004FF0FF33F9
:1019F0000293012301930DF1170200920022782136
:101A0000024800F0BDFE07B05DF804FBE4090020C9
:101A100000B585B04FF0FF33029389B20191009079
:101A2000012340227821034800F0AAFE05B05DF8AA
:101A300004FB00BFE4090020002303E0FF21054A66
:101A4000D1540133B3F5806F03D20028F6D101469B
:101A5000F5E77047DC0A002010B5002412E0A4F17D
:101A60005000C0B2FFF7BEFF0020FFF7BBFF102001
:101A7000FFF7B8FF8021054800EBC410FFF7C8FF4F
:101A80000134E4B2072CEAD910BD00BFDC0A002003
:101A900010F0800F0FD13F290DD8012A0CD0CB08B0
:101AA00000EBC31001F0070101238B40084A115CD1
:101AB00021EA030111547047CB0800EBC31001F079
:101AC000070101238B40024A115C194311547047EE
:101AD000DC0A00202DE9F04782B0814602A800E927
:101AE00006001F46A9F12003DBB25E2B40D8244B31
:101AF0001B889DF800603344802B3DDC204B5B88C5
:101B00009DF801A05344402B38DC00251FE01C4BFE
:101B10001888598829442044B7FA87F25209C9B273
:101B2000C0B2FFF7B5FF0134A6420FD908FA04F39B
:101B300013F4004FEBD0124B1888598829442044E5
:101B40003A46C9B2C0B2FFF7A3FFECE70135AA4598
:101B500008D9A9F1200303FB0A53019A32F8138034
:101B60000024E1E7064B1A8816441E80484600E030
:101B7000002002B0BDE8F0870020FAE70020F8E777
:101B8000D40A002030B583B0044602A800E906005C
:101B90001D4600E00134207848B12B4602AA12E924
:101BA0000600FFF797FF024620788242F2D003B08A
:101BB00030BD0000014B188059807047D40A0020C6
:101BC00010B504468120FFF70DFF2046FFF70AFFFE
:101BD00010BD000008B530B1054B01225A71AF208D
:101BE000FFF700FF08BD024B00225A71AE20F7E755
:101BF000D40A002008B5642000F00EFA0020FFF798
:101C0000E9FF2020FFF7EEFE0020FFF7EBFEB020FB
:101C1000FFF7E8FEC820FFF7E5FE0020FFF7E2FE31
:101C20001020FFF7DFFE4020FFF7DCFEFF20FFF76C
:101C3000C7FFA120FFF7D6FEA620FFF7D3FEA820FE
:101C4000FFF7D0FE3F20FFF7CDFEA420FFF7CAFE2E
:101C5000D320FFF7C7FE0020FFF7C4FED520FFF713
:101C6000C1FEF020FFF7BEFED920FFF7BBFE222009
:101C7000FFF7B8FEDA20FFF7B5FE1220FFF7B2FE3D
:101C8000DB20FFF7AFFE2020FFF7ACFE8D20FFF733
:101C9000A9FE1420FFF7A6FE0120FFF79BFF0020FE
:101CA000FFF7CAFEFFF7D8FE034B00221A805A80C6
:101CB00001221A7108BD00BFD40A002000B583B00C
:101CC000002100910C4B5A6C42F480425A645A6CC9
:101CD00002F480420092009A01911A6C42F0805204
:101CE0001A641B6C03F080530193019B072000F0E2
:101CF000A7F903B05DF804FB0038024030B589B0A5
:101D00000023039304930593069307930268144BEF
:101D10009A4201D009B030BD00250195114C236BCA
:101D200043F002032363236B03F002030193019B3F
:101D3000C0230393122304930323069304230793DE
:101D400003A9094800F0DAF90295236C43F4001363
:101D50002364236C03F400130293029BDAE700BFB1
:101D600000540040003802400004024000B589B031
:101D70000023039304930593069307930268154B7E
:101D80009A4202D009B05DF804FB0021019103F5ED
:101D900084335A6C42F480525A645A6C02F4805272
:101DA0000192019A02911A6B42F001021A631B6BB5
:101DB00003F001030293029BE023039302230493A5
:101DC000032306930523079303A9034800F096F91C
:101DD000D8E700BF003001400000024000B589B0E4
:101DE0000023039304930593069307930268144B0F
:101DF0009A4202D009B05DF804FB0021019103F57D
:101E0000F6331A6C42F400221A641A6C02F40022AF
:101E10000192019A02911A6B42F001021A631B6B44
:101E200003F001030293029B032303930222049213
:101E300006930823079303A9024800F05FF9D9E746
:101E4000004C004000000240FEE7FEE7FEE7FEE730
:101E5000FEE770477047704708B500F0CBF808BD43
:101E60000120704708B501F06DFC162303604FF0A8
:101E7000FF3008BD08B54FF0FF31FFF7F3FFFEE775
:101E800070B50C461646002506E0AFF300802146EB
:101E900001F8010B01350C46B542F6DB304670BD4A
:101EA00070B50C461646002504E014F8010BAFF39C
:101EB00000800135B542F8DB304670BD4FF0FF3091
:101EC00070474FF400534B6000207047012070476B
:101ED0000020704710B503460C4A0D490D480068B4
:101EE00040B10C4800680344521A934206D8094A8C
:101EF000136010BD0748084C0460F2E701F022FCB3
:101F00000C2303604FF0FF30F3E700BF0000022016
:101F100000040000DC0E0020300F0020704700009D
:101F2000DFF834D00D480E490E4A002302E0D458A1
:101F3000C4500433C4188C42F9D30B4A0B4C002311
:101F400001E013600432A242FBD3FFF7E7FF01F088
:101F5000FFFBFFF7A9FB70470000022000000020F4
:101F6000C809002088A70008C80900202C0F0020FD
:101F7000FEE7000010B504460E4B18784FF47A7354
:101F8000B3FBF0F30C4A1068B0FBF3F000F0A2F8DA
:101F900068B90F2C01D901200AE0002221464FF038
:101FA000FF3000F05FF8054B1C60002000E00120CE
:101FB00010BD00BF140000201000002018000020F9
:101FC00008B50B4B1A6842F400721A601A6842F4A2
:101FD00080621A601A6842F480721A60032000F06E
:101FE0002FF80020FFF7C6FFFFF768FE002008BDAE
:101FF000003C0240034A1168034B1B780B441360FA
:10200000704700BFE00E002014000020014B18684C
:10201000704700BFE00E002038B50446FFF7F6FF1A
:102020000546B4F1FF3F02D0044B1B781C44FFF778
:10203000EDFF401BA042FAD338BD00BF14000020C2
:10204000074AD36823F4E0631B041B0C000200F46E
:10205000E060034343F0BF6343F40033D360704751
:1020600000ED00E000B5194BDB68C3F30223C3F1B8
:10207000070CBCF1040F28BF4FF0040C03F1040E51
:10208000BEF1060F18D9033B4FF0FF3E0EFA0CFCD1
:1020900021EA0C0199400EFA03F322EA03031943E3
:1020A00000280BDB0901C9B200F1604000F5614076
:1020B00080F800135DF804FB0023E5E700F00F0053
:1020C0000901C9B2024B1954F4E700BF00ED00E06A
:1020D00014ED00E00138B0F1807F0BD24FF0E02327
:1020E0005861054AF02182F82310002098610722E8
:1020F0001A6170470120704700ED00E000230F2BAC
:1021000000F2E48070B582B060E085685E00032470
:10211000B44025EA0405CC68B4402C43846045688B
:1021200025EA02054C68C4F300129A402A43426033
:102130005AE0DC08083450F8246003F007029500E8
:102140000F22AA4026EA020E0A69AA4042EA0E02BB
:1021500040F824205CE0072200E0002202FA0EF2A0
:102160002A4302345A4D45F824205A4A94686FEAAB
:102170000C0224EA0C054E6816F4801F01D04CEACC
:102180000405544CA560E46802EA04054E6816F4A0
:10219000001F01D04CEA04054E4CE560646802EA79
:1021A00004054E6816F4003F01D04CEA0405494C82
:1021B0006560246822404D6815F4803F01D04CEAE8
:1021C0000402444C226001330F2B7DD801229A4037
:1021D0000C6804EA020C32EA0404F4D14C6804F0FE
:1021E0000304013C012C90D94A6802F00302032A3F
:1021F00009D0C4685D000322AA4024EA02048A6868
:10220000AA402243C2604A6802F00302022A90D028
:1022100004684FEA430E032202FA0EF224EA020493
:102220004A6802F0030202FA0EF2224302604A6890
:1022300012F4403FC7D000220192274A546C44F464
:1022400080445464526C02F480420192019A9C08CA
:10225000A51C1F4A52F8255003F003024FEA820ED4
:102260000F2202FA0EF225EA02051C4A90423FF4C0
:1022700074AF02F5806290421AD002F580629042FB
:1022800018D002F58062904216D002F5806290422A
:1022900014D002F58062904212D002F58062904222
:1022A00010D002F5806290423FF455AF082255E706
:1022B000012253E7022251E703224FE704224DE7B0
:1022C00005224BE7062249E702B070BD704700BF08
:1022D00000380140003C014000380240000002404C
:1022E0000AB18161704709048161704703685A69C6
:1022F00012F4806F01D1002070476FF480625A6140
:1023000000230363202280F83D2080F83E30026CD9
:1023100042F00402026480F83C30012070472DE94D
:10232000F04107460D4690461E4624E0FFF76EFE3C
:10233000069BC01AB04200D8EEB900233B632022AE
:1023400087F83D2087F83E303A6C42F020023A642C
:1023500087F83C3001201EE03B689C6925EA040CAC
:102360001FFA8CFCBCFA8CFC4FEA5C1CE04511D1D6
:10237000B6F1FF3FDAD1C5F30743012BECD13B683F
:102380005B6925EA030C1FFA8CFCBCFA8CFC4FEA53
:102390005C1CEBE70020BDE8F0812DE9F04105462B
:1023A0000E46174698463DE01A6842F400721A60DD
:1023B0002B686FF480625A6100232B63202285F81A
:1023C0003D2085F83E302A6C42F004022A6485F8EC
:1023D0003C30012034E0FFF719FEA0EB0800B842C2
:1023E00000D8FFB900232B63202285F83D2085F813
:1023F0003E302A6C42F020022A6485F83C300120ED
:102400001EE02B689C6926EA0404A4B2003C18BFB5
:102410000124A4B12B685A6912F4806FC4D1B7F1BA
:10242000FF3FD8D1C6F30743012BEAD12B685C6983
:1024300026EA0404A4B2003C18BF0124E9E7002006
:10244000BDE8F08170B504460D46164623685B6909
:1024500013F0800F1CD12046FFF748FFD0B9B5F12B
:10246000FF3FF3D0FFF7D2FD801BA84201D8002D1B
:10247000ECD100232363202284F83D2084F83E30F1
:10248000226C42F02002226484F83C30012000E0FB
:10249000002070BD0120FCE72DE9F04385B0044623
:1024A0000D4691461F46DDF830800D9E0368196881
:1024B00041F4807119600096434600224FF00111EB
:1024C000FFF72DFF60B9236805F0FE051D61334657
:1024D000424626492046FFF760FF68B1012008E028
:1024E00023681B6813F4807F02D04FF400732364C9
:1024F000032005B0BDE8F0830023039323685A69E5
:1025000003929B690393039B324641462046FFF7A3
:1025100099FF30B9012F0FD123685FFA89F61E6148
:10252000E7E7236C042B01D00120E2E7226813685F
:1025300043F400731360F7E723684FEA19221A6126
:10254000324641462046FFF77DFF20B923685FFAF7
:1025500089F61E61CDE7236C042B01D00120C8E76A
:102560002268136843F400731360F7E70200010068
:1025700070B504460D46164623685B6913F0040FD8
:102580001CD12046FFF7B2FED0B9B5F1FF3FF3D022
:10259000FFF73CFD801BA84201D8002DECD10023A1
:1025A0002363202284F83D2084F83E30226C42F0E0
:1025B0002002226484F83C30012000E0002070BD3D
:1025C0000120FCE7002800F0CC8070B5044690F8AC
:1025D0003D30002B77D0242384F83D3022681368E7
:1025E00023F0010313602268136843F4004313606F
:1025F0002268136823F40043136000F08FFC6268C4
:102600005A4B9A4264D85A4B98428CBF00230123FC
:10261000002B40F0A8805749A1FB00318B0C2568A6
:102620006A6822F03F0242EA91426A6021680A6ABF
:1026300022F03F0266684D4DAE424FD8013313433E
:102640000B622168CA6922F44F4222F0FF026668D9
:10265000464B9E424CD8431E7600B3FBF6F3013343
:1026600040F6FC70034278D0C3F30B031343CB61F5
:1026700021680B6823F0C003E269206A0243134318
:102680000B6021688B6823F4034323F0FF03226966
:10269000E068024313438B602168CB6823F0FF039B
:1026A0006269A06902431343CB602268136843F058
:1026B0000103136000202064202384F83D30206350
:1026C00084F83E0070BD80F83C30FFF717FB82E7CE
:1026D000294B98428CBF0023012399E74FF496754C
:1026E00005FB03F3254DA5FB03539B090133A6E727
:1026F000A368BBB9451E06EB460CB5FBFCF50135DE
:10270000C5F30B05B5FA85F56D0945BBC3B90138AD
:1027100006EB4603B0FBF3F30133C3F30B0343F4BF
:102720000043A3E7451E06EB860C0CEB8C0CB5FBB7
:10273000FCF50135C5F30B05B5FA85F56D09E4E740
:10274000013806EB860303EB8303B0FBF3F301339D
:10275000C3F30B0343F4404388E7042386E70123D4
:1027600084E7012070470120ACE700BFA08601008C
:102770007F841E0083DE1B43FF083D00D34D6210A3
:102780002DE9F04383B004460F46904699460C9ECF
:10279000FFF73CFC054694F83D00C0B2202803D06A
:1027A000022003B0BDE8F0830095192301224B49B4
:1027B0002046FFF7B4FD002840F0898094F83C30B3
:1027C000012B00F08680012384F83C3023681A68CE
:1027D00012F0010F03D11A6842F001021A60226858
:1027E000136823F400631360212384F83D304023F1
:1027F00084F83E30002323640A9B6362BDF82C30CA
:102800006385638D2385364BE362019500964B46C5
:10281000424639462046FFF73FFE00285BD1238D14
:10282000002B35D02A4631462046FFF70BFE20BB51
:10283000626A236812781A61626A531C6362218D8E
:10284000013989B22185638D9BB2013B9BB26385BF
:102850002368586910F0040FE1D00029DFD05278C6
:102860001A61636A01336362238D013B2385638DA3
:102870009BB2013B9BB26385D1E7236C042B01D053
:1028800001208EE72268136843F400731360F7E7B2
:102890002A4631462046FFF76BFE50B1236C042BCD
:1028A00001D001207DE72268136843F400731360B0
:1028B000F7E72268136843F400731360202384F859
:1028C0003D30002384F83E3084F83C3069E7022034
:1028D00067E7022065E7012063E700BF0200100000
:1028E0000000FFFF002800F0E08170B582B00446D0
:1028F000036813F0010F3BD09F4B9B6803F00C0360
:10290000042B2CD09C4B9B6803F00C03082B21D08C
:102910006368B3F5803F4FD0B3F5A02F52D0964BEC
:102920001A6822F480321A601A6822F480221A602F
:102930006368002B50D0FFF769FB05468E4B1B6880
:1029400013F4003F14D1FFF761FB401B6428F5D955
:102950000320B1E1884B5B6813F4800FD8D0864B1D
:102960001B6813F4003F03D06368002B00F09F81C5
:10297000236813F0020F54D07F4B9B6813F00C0FA9
:102980003ED07D4B9B6803F00C03082B33D0E368EB
:10299000002B68D0794B01221A60FFF737FB054600
:1029A000754B1B6813F0020F54D1FFF72FFB401B30
:1029B0000228F5D903207FE16F4A136843F480337E
:1029C0001360B5E76C4B1A6842F480221A601A68EB
:1029D00042F480321A60ABE7FFF718FB0546664BFE
:1029E0001B6813F4003FC3D0FFF710FB401B6428A3
:1029F000F5D9032060E1604B5B6813F4800FC6D10A
:102A00005D4B1B6813F0020F03D0E368012B40F00D
:102A10005081594A136823F0F803216943EAC1033E
:102A20001360236813F0080F42D063696BB3534BF4
:102A30000122C3F8802EFFF7E9FA05464E4B5B6F83
:102A400013F0020F34D1FFF7E1FA401B0228F5D949
:102A5000032031E1484A136823F0F803216943EA6F
:102A6000C1031360DDE7454B00221A60FFF7CEFA81
:102A70000546414B1B6813F0020FD2D0FFF7C6FA90
:102A8000401B0228F5D9032016E13C4B0022C3F875
:102A9000802EFFF7BBFA0546374B5B6F13F0020F32
:102AA00006D0FFF7B3FA401B0228F5D9032003E153
:102AB000236813F0040F77D02F4B1B6C13F0805F4B
:102AC00033D1002301932C4B1A6C42F080521A64CC
:102AD0001B6C03F080530193019B0125284B1B685D
:102AE00013F4807F23D0A368012B34D0052B38D07A
:102AF000214B1A6F22F001021A671A6F22F00402AA
:102B00001A67A368002B3DD0FFF780FA06461A4BE0
:102B10001B6F13F0020F46D1FFF778FA801B41F2CA
:102B200088339842F3D90320C6E00025D6E7144A3B
:102B3000136843F480731360FFF768FA0646104B7E
:102B40001B6813F4807FCED1FFF760FA801B022848
:102B5000F5D90320B0E0084A136F43F0010313676F
:102B6000CFE7054B1A6F42F004021A671A6F42F062
:102B700001021A67C5E700BF003802400000474263
:102B800000700040FFF742FA0646524B1B6F13F0ED
:102B9000020F08D0FFF73AFA801B41F288339842BF
:102BA000F3D9032088E0EDB9A369002B00F08380FE
:102BB000484A926802F00C02082A51D0022B17D022
:102BC000454B00221A66FFF721FA0446414B1B6869
:102BD00013F0007F42D0FFF719FA001B0228F5D945
:102BE000032069E03B4A136C23F080531364DBE756
:102BF000394B00221A66FFF709FA0546354B1B6868
:102C000013F0007F06D0FFF701FA401B0228F5D928
:102C1000032051E0E369226A1343626A43EA8213A4
:102C2000A26A5208013A43EA0243E26A43EA0263B3
:102C3000284A5360284B01221A66FFF7E7F9044639
:102C4000244B1B6813F0007F06D1FFF7DFF9001B50
:102C50000228F5D903202FE000202DE000202BE0F2
:102C6000012B2BD01B4B5B6803F48001E26991427E
:102C700026D103F03F02216A8A4223D1616A47F6D6
:102C8000C0721A40B2EB811F1ED103F44031A26A18
:102C90005208013AB1EB024F18D103F07063E26AB7
:102CA000B3EB026F14D1002006E001207047012031
:102CB00002E0012000E0002002B070BD0120FBE72F
:102CC0000120F9E70120F7E70120F5E70120F3E70C
:102CD0000120F1E7003802400000474208B5314BBF
:102CE0009B6803F00C03042B57D0082B57D12D4BB6
:102CF0005A6802F03F025B6813F4800F2AD0294B18
:102D00005968C1F3881C4FEA4C11B1EB0C006EEB13
:102D10000E0E4FEA8E1343EA90638101091A63EBAA
:102D20000E03DB0043EA5173C90011EB0C0C43F1B5
:102D30000003590200234FEA4C2041EADC51FDF721
:102D400055FE184B5B68C3F3014301335B00B0FBD6
:102D5000F3F025E0134B5968C1F3881C4FEA4C117E
:102D6000B1EB0C006EEB0E0E4FEA8E1343EA90634C
:102D70008101091A63EB0E03DB0043EA5173C900BA
:102D800011EB0C0C43F10003990200234FEA8C2055
:102D900041EA9C51FDF72AFED3E7034800E00348CF
:102DA00008BD00BF0038024000127A000024F40081
:102DB000002800F09B8070B50D4604464F4B1B6801
:102DC00003F007038B4208D2CBB24C4A137013684E
:102DD00003F007038B4240F08B80236813F0020F4F
:102DE00017D013F0040F04D0454A936843F4E0531E
:102DF0009360236813F0080F04D0414A936843F4AA
:102E0000604393603E4A936823F0F003A1680B434C
:102E10009360236813F0010F32D06368012B21D037
:102E20009A1E012A25D9364A126812F0020F61D083
:102E300033498A6822F0030213438B60FFF7E6F8F8
:102E400006462F4B9B6803F00C036268B3EB820FBE
:102E500016D0FFF7DBF8801B41F288339842F0D997
:102E6000032042E0264A126812F4003FE0D101201C
:102E70003BE0234A126812F0007FD9D1012034E0F0
:102E80001E4B1B6803F00703AB4207D9EAB21B4B8A
:102E90001A701B6803F00703AB422DD1236813F0AF
:102EA000040F06D0164A936823F4E053E1680B43FD
:102EB0009360236813F0080F07D0114A936823F436
:102EC0006043216943EAC1039360FFF707FF0C4B9E
:102ED0009B68C3F303130B4AD35CD8400A4B1860BA
:102EE0000A4B1868FFF746F8002070BD01207047B4
:102EF0000120FAE70120F8E70120F6E7003C024054
:102F00000038024060A300081000002018000020D4
:102F1000014B1868704700BF1000002008B5FFF78C
:102F2000F7FF044B9B68C3F38223034AD35CD8406A
:102F300008BD00BF0038024070A3000808B5FFF7C5
:102F4000E7FF044B9B68C3F34233034AD35CD8408A
:102F500008BD00BF0038024070A300082DE9F0470B
:102F600082B00546884617461E46FFF74FF80A9B73
:102F70001B1A03EB0609FFF749F882462B4B1B6827
:102F8000C3F3CB3309FB03F301932B689C6838EA46
:102F900004030CBF4FF0010C4FF0000CBC4540D0B7
:102FA000B6F1FF3FF1D0FFF731F8A0EB0A0048453A
:102FB0000AD2B9F1000F07D0019A02B14A46019B2B
:102FC000013B01939146E0E72A68536823F0E00350
:102FD00053606B68B3F5827F0BD0AB6AB3F5005FCB
:102FE00014D0012385F85130002385F85030032098
:102FF00018E0AB68B3F5004F02D0B3F5806FECD1A9
:103000002A68136823F040031360E6E72A68136810
:1030100023F4005313602A68136843F400531360C9
:10302000DFE7002002B0BDE8F08700BF10000020FD
:1030300010B584B00446164B1868164BA3FB00303D
:10304000400D4FF47A7303FB00F003906368B3F50F
:10305000827F0BD0039BBBB1039B013B039323688F
:103060009B6813F0800FF5D100200EE000920B4614
:10307000002280212046FFF771FF30B1636D43F0DD
:1030800020036365032000E0002004B010BD00BFF2
:1030900010000020819F5E1600285AD010B504460B
:1030A000436A33B94368B3F5827F05D00023C36117
:1030B00002E00023036143610023A36294F85130CE
:1030C000002B40D0022384F851302268136823F08B
:1030D00040031360636803F48273A26802F404423D
:1030E0001343E26802F400621343226902F0020211
:1030F0001343626902F001021343A26902F40072F1
:103100001343E26902F038021343226A02F080029C
:103110001343A26A02F40052216813430B60638BCD
:1031200003F00403626A02F01002216813434B604B
:103130002268D36923F40063D36100206065012312
:1031400084F8513010BD84F850302046FEF70EFE52
:10315000B8E7012070472DE9F04383B01F460A9D70
:1031600090F85030012B00F01081044688469146BB
:10317000012380F85030FEF749FF064694F851309D
:10318000DBB26268012B0AD0B2F5827F40F0E380A7
:10319000A268002A40F0E980042B40F0E880B8F1F2
:1031A000000F00F0E680B9F1000F00F0E480002F7E
:1031B00000F0E38094F85130DBB2042B02D00523F9
:1031C00084F8513000236365C4F83890E787A787F7
:1031D000C4F83080E786A7862364636423681A688E
:1031E00012F0400F03D11A6842F040021A60E368FF
:1031F000B3F5006F11D063680BB1012F0BD1226BB7
:10320000236812781A73236B01332363E38E9BB216
:10321000013B9BB2E38601276BE063680BB1012F92
:103220000BD1226B23681288DA60236B023323638D
:10323000E38E9BB2013B9BB2E38601271CE023682F
:103240009A6812F0010F0ED0E28F92B25AB1DA688A
:10325000A36B1A80A36B0233A363E38F9BB2013B82
:103260009BB2E3870127FEF7D1FE801BA84203D360
:10327000B5F1FF3F40F08380E38E9BB21BB9E38F33
:103280009BB2002B53D023689A6812F0020FD6D05D
:10329000E28E92B2002AD2D0002FD0D0226B1288B8
:1032A000DA60236B02332363E38E9BB2013B9BB254
:1032B000E3860027C3E723689A6812F0010F0ED057
:1032C000E28F92B25AB1DA68A36B1A70A36B013322
:1032D000A363E38F9BB2013B9BB2E3870127FEF719
:1032E00095FE831BAB4202D3B5F1FF3F49D1002DC0
:1032F00049D0E38E9BB213B9E38F9BB2BBB1236875
:103300009A6812F0020FD6D0E28E92B2002AD2D082
:10331000002FD0D0226B12781A73236B01332363F2
:10332000E38E9BB2013B9BB2E3860027C3E73246A4
:1033300029462046FFF77CFE48B9A36863B901938C
:103340002368DA6801929B680193019B04E02023C3
:103350006365012000E00220012384F8513000233E
:1033600084F8503003B0BDE8F0830220F4E7022077
:10337000F2E70120F0E70120EEE70120ECE703206F
:10338000EAE70320E8E70320E6E70220EAE7000097
:1033900038B504460268136923F44053C1680B43EF
:1033A000136183680269134342691343C2691A4374
:1033B0000168CB6823F4164323F00C031343CB605E
:1033C0000268536923F4407381690B4353610368B6
:1033D000314A934206D002F58062934202D0FFF751
:1033E0009DFD01E0FFF7AAFDE369B3F5004F29D089
:1033F0000021031849411B1841F10001C90041EAAD
:103400005371DB00181863684FEA83024FEA937325
:1034100041F10001FDF7EAFA204DA5FB0032510908
:10342000642303FB11031B013233A5FB03235B0958
:1034300003F0F00202EB011203F00F0321681344C2
:103440008B6038BD0023021843EB0301121841F1D1
:103450000001C90041EA5271D200101841F1000187
:10346000626892185B41FDF7C1FA0C4DA5FB003272
:103470005109642303FB1103DB003233A5FB032353
:103480005B095A0002F4F87202EB011203F0070321
:10349000216813448B60D4E7001001401F85EB5175
:1034A0002DE9F84305460F4616469946DDF820807B
:1034B0002C68246837EA04030CBF4FF0010C4FF06E
:1034C000000CB4452DD1B8F1FF3FF1D0B8F1000F99
:1034D00005D0FEF79BFDA0EB09004045E8D92A681E
:1034E00002F10C0353E8003F23F4D0730C3242E89E
:1034F00000310029F3D12A6802F1140353E8003F98
:1035000023F00103143242E800310029F3D12023D3
:1035100085F83D3085F83E30002385F83C300320A7
:1035200000E00020BDE8F88358B310B5044690F8D9
:103530003D300BB3242384F83D302268D36823F454
:103540000053D3602046FFF723FF2268136923F45A
:10355000904313612268536923F02A035361226860
:10356000D36843F40053D36000202064202384F800
:103570003D3084F83E3010BD80F83C30FEF72EFC24
:10358000D8E7012070472DE9F04182B01E4690F83F
:103590003D30DBB2202B54D104460D469046002925
:1035A00053D0002A53D090F83C30012B51D0012346
:1035B00080F83C3000230364212380F83D30FEF77F
:1035C00025FD0746A4F82480A4F82680A368B3F557
:1035D000805F05D04FF00008002384F83C3012E0F3
:1035E000236913B14FF00008F6E7A8460025F3E77A
:1035F00038F8023B2268C3F308035360E28C92B2AE
:10360000013A92B2E284E38C9BB273B100963B46DE
:10361000002280212046FFF743FFE0B9002DE7D0CC
:1036200015F8012B23685A60E8E700963B46002214
:1036300040212046FFF734FF78B9202384F83D303D
:1036400000E0022002B0BDE8F0810120FAE701208D
:10365000F8E70220F6E70320F4E70320F2E72DE97C
:10366000F04182B01E4690F83E30DBB2202B5CD198
:1036700004460D46904600295BD0002A5BD090F8A6
:103680003C30012B59D0012380F83C3000230364E7
:10369000222280F83E200363FEF7B8FC0746A4F818
:1036A0002C80A4F82E80A368B3F5805F05D04FF07E
:1036B0000008002384F83C3017E0236913B14FF071
:1036C0000008F6E7A8460025F3E723685B68C3F324
:1036D000080328F8023B03E023685B682B70013580
:1036E000E28D92B2013A92B2E285E38D9BB2BBB118
:1036F00000963B46002220212046FFF7D1FEF0B97C
:10370000002DE2D0A368B3F5805FE5D013B923693B
:10371000002BE1D023685B6803F07F032B70DEE7AA
:10372000202384F83E30002000E0022002B0BDE8F3
:10373000F0810120FAE70120F8E70220F6E70320F4
:10374000F4E70000014B1868704700BF1C00002020
:1037500070B50D4E0D4D761BB61006D0002455F8F1
:10376000043B01349847A642F9D1094E094D761B16
:1037700006F058FAB61006D0002455F8043B013480
:103780009847A642F9D170BD7CA700087CA7000825
:1037900084A700087CA70008024B0146186800F0C7
:1037A00003B800BF1C0000202DE9F04F01F10B060B
:1037B000162E83B0044624D8102900F2BA8000F0F7
:1037C00071FB102618220220B54F3A44A2F10801DD
:1037D00053688B4200F0BA805A68D96822F003021D
:1037E0001A449D68E9608D60516841F001012046EE
:1037F000516003F1080500F05BFB284603B0BDE80B
:10380000F08F36F0070600F19480B14200F291800B
:1038100000F048FBB6F5FC7FC0F09A81730A00F017
:103820008F80042B00F26F81B30903F1390003F19B
:10383000380CC3009A4F3B44A3F108055B689D42D6
:1038400006D10CE0002980F22781DB689D4206D07A
:103850005A6822F00302911B0F29F3DD60463D698F
:10386000DFF840C265457CD06A6822F00302931BF2
:103870000F2B00F37B81002BC7E904CC80F26C8115
:10388000B2F5007F80F01A81D308796801334FEADE
:10389000521E012202FA0EF20A4357F833E0C5F82D
:1038A00008E007EBC3010839E9607A6047F8335054
:1038B000CEF80C50831001219940914257D8114203
:1038C00006D120F003004900114200F10400FAD0B3
:1038D00007EBC0094D468646D5F80C80454508D112
:1038E0001DE1002B80F22481D8F80C80454500F0C2
:1038F0001681D8F8042022F00302931B0F2BF0DD71
:103900002046D8E9025408EB060146F00106C8F843
:103910000460EC60A56043F00104C7E90411C1E94B
:1039200002CC4C6048F8023000F0C2FA08F10805F9
:1039300002E00C2323600025284603B0BDE8F08F89
:103940004FF4007340204FF03F0C73E7D3689A4266
:1039500008BF02307FF440AF3D69DFF848C16545DC
:1039600082D17A688310012199409142A7D9BD681C
:103970006B6823F003094E4503D8A9EB06030F2B10
:103980007ADCDFF824B1494BDBF800201B680132F8
:10399000334405EB090A00F0338103F580530F33FC
:1039A00023F47F6828F00F084146204600F086FA8D
:1039B000411C024600F0F380824500F2EE803C4B51
:1039C000196841441960084600F04E81DBF8001088
:1039D000019301311BBFA2EB0A0A5044CBF800202F
:1039E000186012F0070B00F01781CBF108010A44B0
:1039F000CBF5805190440831A1EB0801C1F30B0ACB
:103A000051462046009200F059FA421CDDE900239D
:103A100000F04F81801A00EB0A081968BA6048F07C
:103A200001005144BD425060196000F02981B9F194
:103A30000F0F40F227816868A9F10C0C2CF0070CDD
:103A400000F0010040EA0C0068604FF0050E05EB45
:103A50000C00BCF10F0FC0E901EE00F2328150689A
:103A60001546144B1A688A4238BF1960124B1A68FF
:103A70008A4238BF196094E0AA1943F0010346F066
:103A800001066E602046BA60536000F011FA0835F6
:103A9000284603B0BDE8F08FD9681A44A1E600BFFC
:103AA000480400205004002050080020140F00207B
:103AB000E40E00200C0F0020100F0020B2F5206F44
:103AC0004FEA522363D3142B00F2B78003F15C0159
:103AD000C9005B3307EB010E7958AEF1080E8E4535
:103AE00000F091804B6823F00303934202D9896868
:103AF0008E45F7D1D1F80CE07A68C5E9021ECEF800
:103B00000850CD60D6E6142B59D9542B00F29D8075
:103B1000330B03F16F0003F16E0CC3008AE60EF164
:103B2000010E1EF0030F05F108057FF4D5AE51E03C
:103B3000424445465368D8F80C1043F001035360E3
:103B400055F8083F2046D9608B6000F0B1F9F3E6E4
:103B5000F00806F1080237E62A442046536843F08D
:103B600001035360083500F0A3F9E5E6A9192046E2
:103B700046F0010643F001046E60C7E90411C1E993
:103B800002CC4C60AB5000F093F90835D4E69309B1
:103B900003F13901C90038339CE7BD425FD0BD68ED
:103BA000686820F003084645A8EB060302D80F2BEF
:103BB0003FF762AF204600F07BF90025BCE603F139
:103BC0005C0003F15B0CC30034E659F808394B453F
:103BD00040F0968010F0030F00F1FF30F5D17B68C4
:103BE00023EA01037B60490099423FF6C0AE19B950
:103BF000BDE649000EF1040E1942FAD0704667E6A0
:103C000003F11008D0E69A104FF001087B6808FA1B
:103C100002F21A437A6070E702EB08014942C1F3ED
:103C20000B0A51462046009200F048F9431CDDE99A
:103C300000237FF4EFAEDA46EFE6542B25D8130BC2
:103C400003F16F01C9006E3344E7B3F5AA7F25D8AD
:103C5000F30B03F1780003F1770CC300EAE5294B7D
:103C6000186840441860B1E6CAF30B0CBCF1000FB1
:103C70007FF4ACAEBD68C84448F001006860F0E66F
:103C80001546EEE60123536094E7B3F5AA7F23D8E7
:103C9000D30B03F17801C90077331BE740F254528C
:103CA000934223D8B30C03F17D0003F17C0CC300D5
:103CB000C0E5ABF1080BD844A8EB02084FF0000AAE
:103CC000ABE605F108012046009303F04DF9BD680D
:103CD000009B68681968C4E640F254518B420BD8C7
:103CE000930C03F17D01C9007C33F3E64FF47E733E
:103CF0007F204FF07E0C9DE54FF47E717E23E9E638
:103D00007B6870E7E40E002088420DD98B1883424F
:103D10000AD900EB020CBAB1624613F801CD02F8E1
:103D200001CD9942F9D170470F2A0ED8034602F10E
:103D3000FF3C4AB10CF1010C013B8C4411F8012B02
:103D400003F8012F6145F9D1704740EA01039B0751
:103D500050D1A2F1100370B501F1200C23F00F0532
:103D600001F1100E00F11004AC441B095EF8105C68
:103D700044F8105C5EF80C5C44F80C5C5EF8085C7F
:103D800044F8085C5EF8045C44F8045C0EF1100E24
:103D9000E64504F11004E9D1013312F00C0F01EBF8
:103DA000031102F00F0400EB031327D0043C24F0AE
:103DB00003064FEA940C1E441C1F8E465EF8045BFB
:103DC00044F8045FB442F9D10CF1010402F003029B
:103DD00003EB840301EB840102F1FF3C4AB10CF1D7
:103DE000010C013B8C4411F8012B03F8012F6145B4
:103DF000F9D170BD02F1FF3C03469BE72246EBE799
:103E0000830730B548D0541E002A3FD0CAB20346BB
:103E100001E0013C3AD303F8012B9D07F9D1032CB3
:103E20002DD9CDB245EA05250F2C45EA054536D9F1
:103E3000A4F1100222F00F0C03F1200EE6444FEA29
:103E4000121C03F1100242E9045542E902551032F6
:103E50007245F8D10CF1010214F00C0F03EB0212C1
:103E600004F00F0C13D0ACF1040323F0030304336C
:103E7000134442F8045B9342FBD10CF003042CB1D1
:103E8000CAB21C4403F8012B9C42FBD130BD6446EE
:103E90001346002CF4D1F9E703461446BFE71A464F
:103EA000A446E0E7014803F06DB900BF1C0F0020F5
:103EB000014803F069B900BF1C0F002038B5074D59
:103EC0000022044608462A60FEF704F8431C00D08E
:103ED00038BD2B68002BFBD0236038BD280F002095
:103EE0000EB410B59DB06FF000411FABCDE90601D7
:103EF0000491094953F8042B0290084C0868019377
:103F000002A9059400F0A8FA029B00221A701DB0C5
:103F1000BDE8104003B070471C0000200802FFFFFE
:103F200080EA0102844612F0030F4FD111F0030F13
:103F300032D14DF8044D11F0040F51F8043B0BD071
:103F4000A3F101329A4312F0803F04BF4CF8043BC6
:103F500051F8043B16D100BF51F8044BA3F10132D4
:103F60009A4312F0803FA4F101320BD14CF8043B8C
:103F7000A24312F0803F04BF51F8043B4CF8044BBD
:103F8000EAD023460CF8013B13F0FF0F4FEA33232E
:103F9000F8D15DF8044B704711F0010F06D011F80D
:103FA000012B0CF8012B002A08BF704711F0020FFB
:103FB000BFD031F8022B12F0FF0F16BF2CF8022BE6
:103FC0008CF8002012F47F4FB3D1704711F8012B09
:103FD0000CF8012B002AF9D1704700BF30B540EA38
:103FE0000104A30701D1032A0FD8844601F1FF3E43
:103FF00007E01EF8011F03F8011B541EC1B19C46C7
:1040000022466346002AF4D130BD0B468446194649
:1040100053F8045BA5F1013424EA050414F0803F51
:10402000E4D1043A032A4CF8045B1946EFD8DDE7E3
:104030006244002CE8D003F8011B9342FBD130BD51
:104040002DE9F04F012BADF21C4D1D4681460F4668
:10405000904640F24581012300249C4619464FF0CA
:10406000FF3006E0A3EB000C1C46012163189D42C3
:1040700010D908EB000218F80360525C9642F1D3A5
:1040800000F082804FF0010C2046614664446318C2
:104090009D42EED8CDF808C04FF0010C00246146D7
:1040A0004FF0FF36634606E0A3EB060C1C460121E9
:1040B00063189D420FD908EB010218F803E0925DE6
:1040C0009645F1D866D04FF0010C2646614664440F
:1040D00063189D42EFD8013600F1010BB34502D8B9
:1040E000CDF808C0B34605AB0DF2144243F8045FA7
:1040F0009342FBD1002D00F0F8806C1E06AE08F153
:10410000FF3208EB0400019612F8011FD3432B4441
:104110004344904246F82130F6D1029B5A4608EBC0
:104120000301404603F032F8002840F08180029BF2
:104130000BF1FF32EB1A824606460592039309EB18
:10414000060E019A1EF8043052F8233043B3BAF138
:10415000000F04D0029A9342039A38BF13461E44BC
:104160004FF0000A7B1BB342E9D209EB070045F48C
:10417000006103F087FC07447B1BB342DFD20020C1
:104180000DF21C4DBDE8F08F8C4512BF0131644427
:1041900001216BE761450ABF64180131012187E7FE
:1041A000D3455B4638BF5346A34211D2591E9A19D4
:1041B00041444A4402E00133A34209D212F8010B00
:1041C00011F801CF8445F6D0CBF101021644C6E7C1
:1041D000D345059B7DD90BEB06024A4408EB0B0146
:1041E000CDF810B002E0534516D0034612F8010D89
:1041F00011F801CD844503F1010B03F1FF30F2D03A
:104200005B46DDF810B00AF1010A9A450BD8029B13
:10421000DDF80CA01E44A5E753460AF1010A9A45B1
:10422000DDF810B0F3D970460DF21C4DBDE8F08FEB
:10423000A5EB0B035B4538BF5B46013304930BF1E1
:10424000FF330293CBF101030026039345F4006A88
:1042500009EB060E019A1EF8043052F823306BB1B8
:104260001E447B1B9E42F3D909EB0700514603F025
:1042700009FC07447B1B9E42EAD980E7A34514D280
:10428000029B0BEB060208EB03014A445B4602E08B
:104290000133A34209D212F8010B11F801CF844572
:1042A000F6D0039A16441E44DBE7BBF1000F12D090
:1042B0000BEB0601494408EB0B0201E043450AD031
:1042C00012F801CD11F8010D84451346F6D0049B78
:1042D000C6E75B4697E770460DF21C4DBDE8F08FD0
:1042E000012302934FF0000BFDE606AB4FF0FF34C5
:1042F000019312E72DE9F0410D46097890B004468C
:10430000002951D06A78002A00F08180AB78002B18
:104310004ED0E878002800F081802B79002B55D012
:104320002846FCF7EDFD064640F40071204603F0F8
:10433000A9FB86425AD8FE2E00F28580801B2718E2
:104340004022711C6846FFF75BFD7EB16A1E5FFA72
:1043500086FC901912F8013F10A903F03F030B44AB
:10436000A91A6144824203F8401CF3D1013C10AA0F
:10437000A35D03F03F03134413F8400C0444A74229
:1043800003D238E04444A74235D314F806C010AB3A
:104390000CF03F0C9C442046324629461CF8408CC9
:1043A00002F0F4FE0028EDD1204610B0BDE8F08107
:1043B000007842EA014200E00C4640EA0343611CF7
:1043C000A0B19A426078F7D1013CEDE722786AB15A
:1043D000296809BA01E099421ED042EA0323204627
:1043E00014F8012F002AF6D1994215D00024204656
:1043F00010B0BDE8F081BB5DB819002BF6D04FF4CA
:10440000006103F03FFB0744BC42AFD9EEE710B0B8
:10441000BDE8F04103F0D0BAC41EC5E7120442EA79
:10442000016242EA03232178024600E02C4641EA79
:104430000200651C02020029D8D0B3EB002F61787E
:10444000F4D1023CB0E7014633462A46204610B07C
:10445000BDE8F041FFF7F4BD2DE9F04FD5B00C46B3
:104460000C9191460E930A9002F084FE0368179314
:104470001846FCF745FDA3891690190603D5236954
:10448000002B00F08B8700242BAB4D46CDE929444F
:10449000CDE91944CDE91B44129428939846189409
:1044A000002308940024CDE914342B78002B00F06D
:1044B000DD81AA4604E01AF8013F002B00F01681C6
:1044C000252BF8D1BAEB050640F014819AF800309C
:1044D000002B00F0CB8100234FF0FF329AF80160EF
:1044E0008DF8833009930AF1010A07921F462B24A5
:1044F0004FF020090AF1010AA6F120035A2B00F21D
:104500002D81DFE813F0BA022B012B01B5022B013C
:104510002B012B016A002B012B014F02E3022B011F
:104520005A02C9022B01C4025B005B005B005B0006
:104530005B005B005B005B005B002B012B012B0130
:104540002B012B012B012B01BF012B011A0286002D
:10455000BF01BF01BF012B012B012B012B01B002B9
:104560002B012B01C3002B012B012B0124022B015A
:104570005F022B012B013C072B012B012B012B018F
:104580002B012B012B012B01BF012B011A028800EB
:10459000BF01BF01BF01A302880081002B01960269
:1045A0002B018202C500700281002B0124027E00D3
:1045B00039072B012B0119072B017E00A6F13003CF
:1045C00000221AF8016B02EB820203EB4202A6F111
:1045D0003003092BF5D909928EE7DDF828B058464B
:1045E00002F0C8FD43681B931846FCF789FC1C9039
:1045F0000646584602F0BEFD83681993002E40F02F
:104600007A869AF8006075E79AF8006047F020070C
:1046100070E747F01007BA060E9B40F18081073320
:1046200023F007031A465B6852F8084B0E9299462E
:10463000002BC0F25F85079B013301F01F8054EA15
:10464000090327F0800B00F0E3840A2C79F10003C2
:1046500080F08187303401238DF84F415F460B9302
:104660000DF24F1507990B989DF8832081424FF06A
:104670000003B8BF01460D9306910F931393109357
:10468000002A7CD0069B0133069378E047F01007A0
:1046900017F0200900F034810E9B073323F0070345
:1046A000D3F8049053F8084B0E9327F4806B002343
:1046B00000228DF88320079A511C00F00D8254EAE5
:1046C00009012BF0800740F00682002A41F010809B
:1046D000002B40F0A2841BF001030B9300F0378500
:1046E00030238DF84F310DF24F15BBE7BAEB0506BD
:1046F00000F0BC802A9B33442A93299B0133072B6B
:10470000C8E90056299305DC08F10808089B3344E2
:104710000893DBE60C990A9828AA03F0C5F980B93A
:104720000DF1AC08F2E70C990A9828AA03F0BCF93D
:10473000002800F08C800D9B1BB10D990A9802F0A7
:1047400013FC0C9B9B8913F0400F089B18BF4FF084
:10475000FF330893089855B0BDE8F08F002E00F0A5
:10476000858000228DF8EC608DF88320012306936C
:104770000D920B9307920F92139210923BAD17F08C
:10478000020302D006990231069117F0840B07D17B
:1047900009990698A1EB0009B9F1000F00F3158300
:1047A0002A9C8AB1299A0DF1830101320134C8F89B
:1047B0000010072A4FF001012A942992C8F804102A
:1047C00000F3468308F1080883B1299B21AA01332D
:1047D0000234C8F80020072B4FF002022A942993D4
:1047E000C8F8042000F3488308F10808BBF1800FE3
:1047F00000F00E82079B0B9AA3EB020BBBF1000F9C
:1048000000F34F82FB0500F1A5810B9BC8F8043033
:104810001C44299BC8F800500133072B2A94299384
:1048200000F3C78208F108087B0705D5099B069AA3
:104830009D1A002D00F32C83DDE9083206998A4287
:10484000ACBF9B185B180893002C7FF46CAF00235F
:1048500029930D9B1BB10D990A9802F085FB0DF170
:10486000AC0855462B78002B7FF423AE2A9B002BF7
:104870003FF467AF0C9C0A9828AA214603F014F96C
:10488000A38960E70E9B073323F00702F2E80234A6
:10489000CDE91434DDE9143424F000440E92994635
:1048A00018462146A74B4FF0FF32FCF71FFC0028AB
:1048B00040F06284A34B484621464FF0FF32FCF79C
:1048C000F7FB002840F05884DDE9140100220023A2
:1048D000FCF7E4FB002840F0AD879DF883209A4D5B
:1048E0009A4B27F080070321472EC8BF1D4600239F
:1048F0000D9306910B9107930F9313931093BFE6BB
:1049000017F0100340F02E8417F0400200F0548797
:104910000E9A52F8044B0E929946A4B2C5E653F88B
:10492000044B0E93FB0600F118847D0640F11284BF
:1049300044F3C0394B4624B27AE60E9B002253F86A
:10494000041B8DF883208DF8EC100E930EE70E9C5F
:10495000079B54F8045B4FF000098DF88390002DFD
:1049600000F0D5865A1C00F052851A464946284662
:10497000FCF75EFA0D90002801F057800D9BCDF8F2
:104980001C905B1B0B930E9423EAE3739DF883202A
:104990000693CDF83490CDF83C90CDF84C90CDF8FE
:1049A00040906DE60E9B53F8042B0992002A80F28A
:1049B000C983099A0E93524209929AF8006047F00F
:1049C000040797E547F0100B1BF0200900F08183E6
:1049D0000E9B073323F00703D3F8049053F8084BDA
:1049E0000E93012364E60E9B53F8044B0E93302381
:1049F00078268DF88430564B189347F0020B8DF8CB
:104A000085604FF00009022352E6BD0600F1828462
:104A1000FC0600F17386780600F13C87B90540F189
:104A20006D860E9B089953F8042B0E931170554612
:104A300018E79AF800606C2E03BF9AF8016047F0FF
:104A400020070AF1010A47F0100753E59AF80060C1
:104A5000682E03BF9AF8016047F400770AF1010A53
:104A600047F0400746E59AF8006047F0080741E53F
:104A70009AF8006047F001073CE59DF88330002B71
:104A80007FF4BFAD9AF800608DF8839032E59AF814
:104A9000006047F080072DE5524612F8016B2A2E80
:104AA00001F0CD81A6F13003092B924698BF002278
:104AB00001F288801AF8016B02EB820203EB4202DA
:104AC000A6F13003092BF5D9079215E59AF8006095
:104AD0008DF883400EE5BB46012B3FF4B6AD022BAB
:104AE00054AD12D1189A04F00F032409D35C05F8D1
:104AF000013D44EA09744FEA191954EA0903F2D155
:104B000054AB5B1B5F460B93ACE504F00703E40872
:104B100044EA49744FEAD909303354EA09012A4674
:104B200005F8013DF1D11BF0010FE9D0302BE7D0A2
:104B30003023023A05F8013C54AB9B1A5F460B93B5
:104B400015468FE5FFFFEF7F80A4000884A40008CE
:104B500090A40008652E40F3E680DDE914010022F0
:104B60000023FCF791FA002800F0CD81299BBF4A71
:104B7000C8F80020013301340122072B2A9429931D
:104B8000C8F8042000F37D8508F10808229B129ADA
:104B9000934280F2D382169B179A1C44C8E90023E3
:104BA000299B2A940133072B299300F3EB8308F107
:104BB0000808129B5D1E002D7FF736AE102D299B35
:104BC000DFF8AC9240F36E8549462246B946DDF8DF
:104BD00028B00C9C10260F4605E008F10808103D8F
:104BE000102D40F35B8501331032072BC8E90076A6
:104BF000CDE92932F1DD28AA2146584602F054FFBA
:104C000000287FF498ADDDE929320DF1AC08E6E724
:104C1000099B069AA3EB020BBBF1000F7FF7EAADED
:104C2000BBF1100F299ADFF848922CDD1D96214622
:104C30004E460C9CDDF82890102306E0ABF1100BDB
:104C4000BBF1100F08F108081ADD01321031072AF4
:104C5000C8E90063CDE92921F0DD28AA21464846AC
:104C60000DF1AC0802F020FF00287FF464ADABF139
:104C7000100BBBF1100FDDE929214FF01003E4DC2C
:104C8000B1461D9E0C4601325C44072ACDE9292419
:104C9000C8F80090C8F804B000F31D8508F10808B2
:104CA000A8E5BBF1100F299ADFF8C4912DDD41462C
:104CB0002046A8464C460C9DDDF82890102306E0BF
:104CC000ABF1100BBBF1100F01F1080119DD01323E
:104CD0001030072AC1E90043CDE92920F0DD28AAD8
:104CE0002946484602F0E0FE00287FF424ADABF1EF
:104CF000100BBBF1100FDDE929202BA94FF0100399
:104D0000E5DC4546A1468846044601325C44072A54
:104D1000CDE92924C8F80090C8F804B000F3CC818C
:104D200008F108086EE5129B012B40F37C81299E57
:104D3000C8F80050013601340123072E2A94299621
:104D4000C8F8043000F3E08108F10808169B179AB0
:104D500001361C44072EC8E90023CDE9296400F37D
:104D6000E08108F10808DDE9140100220023FCF7C6
:104D70008BF9002840F07481129B0136013B01350C
:104D80001C44072EC8F800502996C8F804302A940D
:104D900000F3598108F108081A9BC8F8043001365D
:104DA0001C44072E24ABCDE92964C8F800307FF7F6
:104DB00039AD0C990A9828AA02F076FE00287FF4F3
:104DC000BAAC2A9C0DF1AC082EE5B9F1100FDDE963
:104DD00029212BDDCDE91D3B1F96DDF828B04E467D
:104DE0001024A9460C9D04E0103E102E08F108087E
:104DF00017DD01321F4B1031072AC8E90034CDE915
:104E00002921F1DD28AA294658460DF1AC0802F007
:104E10004BFE00287FF48FAC103E102EDDE92921D7
:104E2000E7DCDDE91D3B4D46B1461F9EC8F8049006
:104E3000013209EB0104072A0E49C8F80010CDE938
:104E4000292400F3FF839DF8832008F10808A8E4D3
:104E50000C990A981D9328AA02F026FE00287FF4D8
:104E60006AAC2A9C1D9B0DF1AC08ADE4C0A40008FF
:104E7000D4A40008C4A400080C990A9828AA02F037
:104E800013FE00287FF457AC2A9C0DF1AC08ADE46A
:104E9000102D299B21DD0A9FDDF83090102604E0BB
:104EA000103D102D08F1080817DD0133B04A103409
:104EB000072BC8E90026CDE92934F1DD28AA4946A7
:104EC00038460DF1AC0802F0EFFD00287FF433AC5A
:104ED000103D102DDDE92934E7DC0133A44AC8F880
:104EE00004502C44072BCDE92934C8F800207FF763
:104EF000A3AC0C990A9828AA02F0D6FD00287FF4EA
:104F00001AAC2A9C98E42299002940F36683DDF8C4
:104F10004090129B9945A8BF9946B9F1000F0BDD4F
:104F2000299B01334C44072BC8E900592A94299343
:104F300000F32F8508F10808109EB9F1000FA8BFF3
:104F4000A6EB0906002E00F33882DDF840B07805A4
:104F5000AB4400F16682229B129A934202DBF9076E
:104F600040F18E84169A17991444C8E90012299AC0
:104F70002A940132072A299200F3188508F10808BB
:104F8000129AAE18A6EB0B06D51AAE42A8BF2E4653
:104F9000002E0DDD299BC8F800B001333444072BE7
:104FA000C8F804602A94299300F31A8608F10808C7
:104FB000002EA8BFAD1B002D7FF736AC102D299B0E
:104FC000DFF8B09140F36E8349462246B946DDF8DA
:104FD00028B00C9C10260F4605E008F10808103D8B
:104FE000102D40F35B8301331032072BC8E90076A4
:104FF000CDE92932F1DD28AA2146584602F054FDB8
:1050000000287FF498ABDDE929320DF1AC08E6E722
:10501000079B002B7FF41EAB5F46002307930B9387
:1050200054ADFFF71FBBFA073FF581AE299EC8F8C4
:105030000050013601340123072E2A942996C8F81E
:1050400004307FF7A7AE0C990A9828AA02F02CFD2D
:1050500000287FF470ABDDE929640DF1AC089BE614
:10506000129B5D1E002D7FF797AE102DDFF8049187
:1050700040F39683224607970A9C0C9F4FF0100B33
:1050800005E008F10808103D102D40F38783013634
:105090001032072EC8E9009BCDE92962F1DD28AA6C
:1050A0003946204602F000FD00287FF444ABDDE9DC
:1050B00029620DF1AC08E6E70C990A9828AA02F0DB
:1050C000F3FC00287FF437AB2A9C0DF1AC08FFF706
:1050D00099BB1BF0100340F028811BF0400200F048
:1050E00079830E9A52F8044B0E929946A4B201238A
:1050F000FFF7DEBA2D2364428DF8833069EB49094E
:10510000BB460123FFF7D7BA0C990A9828AA02F0E8
:10511000CBFC00287FF40FABDDE929640DF1AC086E
:1051200014E60C990A9828AA02F0BEFC00287FF425
:1051300002ABDDE929640DF1AC0814E6FD077FF54B
:1051400073AB28E59AF800600E93FFF7D3B954AD1E
:10515000FFF788BAB80500F1A6834FEAE4794B4619
:10516000FFF766BA0E9B53F8044B0E93FFF79DBAF8
:10517000C4A40008D4A40008DDE9140102460B46CB
:10518000FBF7B4FF002840F00F86612E00F0458544
:10519000412E00F06D84079B013326F02003069317
:1051A00000F0A983472B00F08885DDE9141247F44D
:1051B00080730F931346002BC0F292850B9300234C
:1051C0001D938B460D93069B462B00F0FD83452BCC
:1051D00000F044850799019126A9049123A9039120
:1051E00022A9029102210B9B0A9800915A4600F0D5
:1051F000F3FE069B472B054640F0318617F0010F62
:10520000B9460F9F40F0FC84269B5B1B1293069BC4
:10521000472B00F08283069B462B00F01284229BD2
:105220001093109B069A013B412A229300F0AD8512
:10523000F2B20021002BB8BF109B8DF89020BABFAE
:10524000C3F101032D222B22092B8DF8912040F36D
:105250008D850DF19F04B64F2246104687FB032132
:10526000DA17C2EBA10202EB8201A3EB410130315C
:1052700000F8011C19466329134600F1FF32ECDCEB
:105280003033D9B2831E9C4202F8011C40F2F185F2
:1052900013460DF1920201E013F8011B02F8011B05
:1052A0009C42F9D10DF1A1030DF192021B1A134496
:1052B00024AA9B1A1A93129B1A9A012B1A440B9236
:1052C00040F39E850B9B169A13440B930B9A002375
:1052D00029F4806722EAE27247F480770F930692FE
:1052E000139310931D9B002B40F03F839DF8832068
:1052F0000793FFF7C5B9199B002B3FF482A9199BAF
:105300001B78002B3FF47DA99AF8006047F4806772
:10531000FFF7F0B80E9B089853F8041B0E93C217C2
:10532000C1E900025546FFF79DBA0E9B53F8044BA6
:105330000E930123FFF7BCB97E4B189317F0200999
:1053400000F0EC800E9B073323F00703D3F80490A2
:1053500053F8084B0E93F80709D554EA090306D011
:1053600030238DF8856047F002078DF8843027F4EC
:10537000806B0223FFF79CB9BB46FFF725BB6E4B42
:105380001893DBE70C990A9828AA02F08DFB0028F5
:105390007FF4D1A92A9C0DF1AC080AE40A984021B7
:1053A000FEF702FA0C9B18601861002800F0658572
:1053B0000C9A40235361FFF766B8102E299BDFF843
:1053C0007C9140F32982484642462146A846B94688
:1053D0000A9C0C9D4FF0100B074604E00832103E6B
:1053E000102E40F3138201331031072BC2E9007BEA
:1053F000CDE92931F2DD28AA2946204602F054FBE6
:1054000000287FF498A9DDE929312BAAE7E728468F
:10541000CDF81C900E94FBF773FD03460B90FFF73D
:10542000B3BA129BCDF82CA04246DDF84C80109701
:10543000EB1807935E46199FDDF87090DDF828A001
:10544000DDF830B00F9B13952146B8F1000F2FD037
:10545000002B30D1013F08F1FF381B9BC2E9003916
:10546000299B01334944072B2A91299368DC083290
:10547000079B38789B1B8342A8BF0346002B1C4622
:105480000BDD2998013019440728C2E900632A91ED
:10549000299000F3148138780832002CACBF051B2A
:1054A0000546002D0BDC06440F9BB8F1000FCFD151
:1054B000002B00F023820F9B013B0F93CDE7102DB3
:1054C00029981DDD102404E0103D102D02F1080282
:1054D00016DD0130194B10310728C2E90034CDE93F
:1054E0002901F1DD28AA5946504602F0DDFA0028CC
:1054F0007FF421A9103D102DDDE929012BAAE8DC5C
:1055000001300E4B556029440728CDE9290113606D
:1055100000F33282387808320644C5E717F01003EA
:1055200000F0A1800E9B53F8044B0E9313E700BFCD
:105530006766666690A40008A4A40008D4A40008C6
:1055400028AA5946504602F0AFFA00287FF4F3A883
:105550002A992BAA8CE70BF4806300220696CDF8DB
:105560002CA0CDF8348054AFDDF8648016469A46FE
:105570000CE00023204649460A22FBF737FA0A2CA2
:1055800079F100031BD3044689462F4620460A22A0
:1055900000234946FBF72AFA30327D1E013607F810
:1055A000012CBAF1000FE4D098F800309E42E0D10F
:1055B000FF2EDED00A2C79F1000380F0408154AB3D
:1055C0005B1BDDF82CA0CDF864801296DDF83480EA
:1055D000069E0B935F46FFF745B8299BBC4AC8F867
:1055E0000020013301340122072B2A942993C8F8A3
:1055F000042000F3388108F10808002940F0978062
:10560000129A07F0010313433FF40EA9169B179952
:105610001A19C8E90013299B2A920133072B2993F1
:1056200000F3478108F108081299C8F800500133C7
:105630008C18072BCDE92934C8F804107FF7F2A89D
:10564000FFF7B7BB0C990A981D9328AA02F02CFA11
:1056500000287FF470A89DF883202A9C1D9B0DF1E3
:10566000AC08FFF79EB817F0400200F0C2800E9A17
:1056700052F8044B0E929946A4B26CE6BB46FEF774
:10568000E4BF0C990A9828AA02F00EFA00287FF4C9
:1056900052A82A9C0DF1AC08FFF778BA14463A4696
:1056A0004F46914601332C44072BC8F80090C8F8A8
:1056B0000450CDE929347FF7B5A8FFF77ABB28AAB3
:1056C0005946504602F0F0F900287FF434A83878A3
:1056D0002A992BAAE1E60C990A9828AA02F0E4F983
:1056E00000287FF428A82A9C0DF1AC08FFF782B8A7
:1056F000012BBB467FF4F3A9FEF7ACBF0E9B0899C4
:1057000053F8042B554611600E93FFF7ABB8062BE8
:10571000294628BF062307950D952A4606936D4D09
:105720000E940B930F9113911091FEF7A9BF169B46
:1057300017981A19C8E90003299B2A920133072BED
:10574000299300F3B68008F108080029BFF66CAF72
:105750004E421031DFF8809180F297824146DDF8A9
:1057600028B0A84610240C9D04E00831103E102EED
:1057700040F3898201331032072BC1E90094CDE94F
:105780002932F2DD28AA2946584602F08DF9002870
:105790007EF4D1AFDDE929322BA9E7E7079F144654
:1057A00001362C44072ECDE92964C8F80090C8F8CA
:1057B00004507FF7EFAA46E40E9B17F4007914BF5C
:1057C00053F8044B53F8044B0E931CBF9146E4B2BC
:1057D000FEF76BBF0E9B1BF4007914BF53F8044B0C
:1057E00053F8044B0E931CBF9146E4B20123FEF71D
:1057F0005FBF0E9B17F4007914BF53F8044B53F8A6
:10580000044B0E931CBF9146E4B2A4E54546904676
:105810003A460C464F46914601333444072BCDE9B6
:105820002934C8F80090C8F8046057DC08F108086B
:10583000FFF78BBB2D228DF88320FFF750B81C9B00
:105840001B99ED1A1A462846FEF7C8FB98F8013056
:105850000BB108F10108204649460A220023002620
:10586000FBF7C4F88FE60C990A9828AA02F01CF9F5
:1058700000287EF460AF22992A9C0DF1AC08BCE6AA
:10588000129AAE18A6EB0B06D51AAE42A8BF2E464A
:10589000FFF78EBB0E9B089953F8042B0E931180D3
:1058A0005546FEF7DFBF44F3C0194B4664B2FEF71E
:1058B000BFBE0C990A9828AA02F0F6F800287EF4D8
:1058C0003AAFDDE9293222990DF1AC083DE700BF7E
:1058D000C0A40008B8A40008D4A400080C990A9831
:1058E00028AA02F0E1F800287EF425AF2A9C0DF1E9
:1058F000AC08FFF72ABB0623079356E4DDE912350F
:10590000EB189E421997B346DDF82CA0109F9046E5
:105910000C4628BF9B46FFF71EBB229B1093DA1C48
:1059200002DB079A934204DD023E26F02003069331
:1059300077E4109B129A9342C0F2488119F0010F4C
:1059400000F01182169A13440B9319F4806F03D060
:10595000109B002B00F3C7810B9B23EAE373069394
:10596000672600230F931393BCE42D2200238DF8A8
:1059700083200793FEF786BE28AA5946504602F0B8
:1059800093F800287EF4D7AE38782A992BAA0644DB
:105990008AE50C990A9828AA02F086F800287EF475
:1059A000CAAE2A9C0DF1AC08FFF7C6BA0C990A984A
:1059B00028AA02F079F800287EF4BDAE229B2A9C2A
:1059C0000DF1AC08FFF7DCBA0799019126A9049103
:1059D00023A9039122A9029103210B9B0A9800910C
:1059E0005A4600F0F9FA0378302B054600F0F181B1
:1059F000229B079AB94613440F9FEC180B995846FF
:105A000000220023FBF740FB10B12346FFF7FDBB4C
:105A1000269BA342BFF4F9AB30215A1C2692197081
:105A2000269B9C42F9D8FFF7F0BB079B9DF883208B
:105A30000E9406930B9307900F9013901090FEF71F
:105A40001FBE229A1092002A40F3E081079909F0C4
:105A500001030B4340F0B781109B0B93662619F4AA
:105A6000806F40F041810B9B23EAE373069378E754
:105A700030238DF8843058238DF88530079B632BB5
:105A800047F0020400F3BF8000230D933BADDDE936
:105A9000141247F481730F931346002B2746C0F26C
:105AA00085800B9326F02003069300238B461D93DD
:105AB000612E00F04081412E7FF485AB22AA0B9924
:105AC000584601F041FF00224FF07F53FAF754FD92
:105AD00002460B46CDE9102300220023FBF7D4FA3F
:105AE00008B101232293AC4B0B93079BCDE912A67F
:105AF000CDE91E78DDF82CA0DDE9106703F1FF3950
:105B0000AB46109506E00022002309F1FF39FBF7B0
